:020000022000DC
:10700000000004202DA403006DA403006FA403005E
:1070100071A4030073A4030075A403000000000022
:10702000000000000000000000000000A9A3030011
:1070300079A4030000000000C9A303007DA403009D
:1070400081A603007FA403007FA403004511030071
:10705000F91103007FA40300097E03007FA403004D
:107060007FA403007FA403007FA403007FA4030088
:107070007FA403007FA403007FA403007FA4030078
:107080007FA40300F9A003007FA403007FA40300F2
:107090007FA403007FA4030055A702007FA4030080
:1070A0007FA403007FA403007FA403007FA4030048
:1070B0007FA403007FA40300000000000000000084
:1070C0007FA403007FA403007FA403006DA7030037
:1070D0007FA403007FA403007FA40300E9BA020099
:1070E0007FA403007FA403007FA40300000000002E
:1070F000000000007FA4030000000000E5A70300DB
:10710000000000000000000000000000000000007F
:10711000000000000000000000000000000000006F
:10712000000000000000000000000000000000005F
:10713000000000000000000000000000000000004F
:10714000000000000000000000000000000000003F
:10715000000000000000000000000000000000002F
:10716000000000000000000000000000000000001F
:10717000000000000000000000000000000000000F
:1071800000000000000000000000000000000000FF
:1071900000000000000000000000000000000000EF
:1071A00000000000000000000000000000000000DF
:1071B00000000000000000000000000000000000CF
:1071C00000000000000000000000000000000000BF
:1071D00000000000000000000000000000000000AF
:1071E000000000000000000000000000000000009F
:1071F000000000000000000000000000000000008F
:10720000F1EE103A43F08073E1EE103A704700BFA0
:1072100010B5054C237833B9044B13B10448AFF3D0
:1072200000800123237010BD68630020000000006F
:10723000F460040008B5034B1BB103490348AFF3E6
:10724000008008BD000000006C630020F4600400B2
:10725000154B002B08BF134B9D46A3F5803A002128
:107260008B460F461348144A121A19F065F80F4B53
:10727000002B00D098470E4B002B00D098470020E1
:10728000002104000D000D48002802D00C48AFF387
:10729000008018F0E7FF2000290013F01FF918F014
:1072A000BBFF00BF00000800000004200000000039
:1072B0000000000068630020349C002000000000F3
:1072C000000000002DE9F0411B4C88462046692152
:1072D0001E46174609F0CAFE2046122109F0D6FDC7
:1072E0002046002109F0CCFE06226921204609F043
:1072F0007DFE204609F0DEFD0546204609F0DAFD58
:1073000045EA0020A8F80000204609F0D3FD054614
:10731000204609F0CFFD45EA00203880204609F0DC
:10732000C9FD02462046144609F0C4FD44EA002087
:107330003080BDE8F08100BFFC7C002038B50F4CE8
:107340000D462046692109F091FE2946204609F0A4
:107350009DFD0021204609F093FE0F2010F0B0FDA6
:107360002046692109F082FE01226921204609F0A8
:107370003DFE204609F09EFDC0B238BDFC7C0020D9
:1073800010B5094C6921204609F070FE20467E2187
:1073900009F07CFD2046112109F078FD2046BDE86A
:1073A000104009F0CBBE00BFFC7C0020F0B49DF87B
:1073B0001040BDF8145080F8A3410024A0F89211A9
:1073C000A0F89421A0F89631A0F8A641A0F8904129
:1073D000BDF81870BDF81C60BDF82020BDF8244031
:1073E000BDF82830BDF82C10EDB12025A0F89A6129
:1073F000A0F89871A0F8A651602602B1ACB94BB1C3
:1074000041B145F48075ADB2A0F8A651A0F8A03105
:10741000A0F8A211A0F8905100F5C871F0BC142298
:10742000703001F093B84026E7E7A0F8A661A0F815
:107430009C21A0F89E413546E1E700BFF8B5444ED7
:10744000044600223046012102F032FF3046082176
:1074500003F0ECF83F49304604F1180503F0BEF89C
:10746000204602F01FFC2846022101F031F80022DC
:107470002846112101F042F82846042101F02CF899
:10748000284604F1700500F0F7FC2846102101F0B1
:107490001FF800222846112101F030F82846142157
:1074A00001F01AF8284604F1C80500F0E5FC28466A
:1074B000022101F00DF800222846112101F01EF8EA
:1074C0000121284601F008F804F59077284600F0DD
:1074D000D3FC04F59C75384602F0E4FB28460121F4
:1074E00000F0FAFF284600F0C7FC012204F5D27133
:1074F000284606F5C86501F00DF806F27C662846B8
:1075000000F0C8FA304600F0C5FA2846062100F01F
:10751000ADFA2146284600F065FA3946284600F0C3
:1075200061FA304600F074FA28464FF4A072A021A8
:1075300000F0CEFA28461E2100F0C8FA28460121A4
:1075400000F0CAFA28460021BDE8F84000F024BB4C
:10755000686500203434040038B5194C194D2046B4
:107560004FF4E13103F08EFF4FF4FA6010F0A8FC05
:107570001549204610F064FB1448FFF75FFF002315
:1075800002222846032109F0E3FEB7EE000A28464E
:107590000AF034FB28460A210AF00CFB0C4920466D
:1075A00010F04EFB0B4809F0C5FC142010F088FCCD
:1075B0000948FFF7E5FEBDE83840642010F080BCC4
:1075C000E06D002030650020443404008863002012
:1075D00060340400FC7C0020846300202DE9F04F1F
:1075E0008BB010F061FC3B4B3B4ADFF8F880DFF8D2
:1075F000F890B8F80040B9F80010DFF8F0A0A3FB4D
:1076000000308009A2FB002364275B0907FB1303FA
:1076100001F58062C833023465213220AAF80030B7
:10762000A9F80020A8F8004010F030FC0546B8F892
:10763000000018F043F9294B002218F0A9F918F0BE
:10764000B9FB024692B24FF4FA7138460992B9F882
:10765000004010F01BFC4FF4167103464FF4967077
:10766000089310F013FC40F22B110646384610F038
:107670000DFC4FF4B4710746B42010F007FCB321A1
:107680008346002010F002FC089B099A02922344D2
:10769000594289B29BB258BF4B429CB21FFA8BF140
:1076A0004FF0010CBFB2B6B2EDB280B2CDE90571B8
:1076B0000790B9F80030B8F80020BAF9001008486F
:1076C000049600950394CDF804C0FFF76FFE0BB04D
:1076D000BDE8F08FD34D62101F85EB510000F83FDD
:1076E000886300204A6500204C6500204865002022
:1076F00070B582B02F480DF1060301AA0DF1020109
:10770000FFF7E0FD2B480021FFF718FED12803D03A
:1077100029492A4810F094FABDF9020018F0CEF871
:10772000274B002218F034F918F064FB0646BDF927
:10773000040018F0C3F8224B002218F029F918F0C1
:1077400059FB0546BDF9060018F0B8F81C4B00229D
:1077500018F01EF918F04EFB1A490446174810F0AD
:1077600011FA304618F0BCF841EC100B0221134816
:1077700010F036FA1449114810F004FA284618F0AF
:10778000AFF841EC100B02210C4810F029FA0F4918
:107790000A4810F0F7F9204618F0A2F841EC100B57
:1077A0000221064810F01CFA0949044810F048FA72
:1077B00002B070BD8463002084340400E06D0020BA
:1077C0000000103FA8340400B4340400BC340400AA
:1077D000C434040038B5FFF701FF0E480E4D0121F7
:1077E0000AF090F910EE104A0C49284610F0CAF938
:1077F000204618F075F841EC100B2846022110F0D5
:107800006FFAFFF775FFBDE838404FF47A7010F05B
:1078100057BB00BF30650020E06D002074340400C9
:1078200038B504460E4D00F59C7000F00BFBC4F813
:10783000205104F5947002F071FA04F1C80000F0D0
:1078400001FB04F1700000F0FDFA04F1180000F0F3
:10785000F9FA204640F8085B02F060FA204638BD8D
:107860000435040010B586B0044641F6180102A89C
:1078700002F05CFA02A9204602F030FA02A802F0F7
:107880004DFA02A842F6652102F050FA02A904F16D
:10789000180000F0A5FD02A802F040FA02A842F686
:1078A000632102F043FA02A904F1700000F098FD90
:1078B00002A802F033FA02A842F65D2102F036FA7D
:1078C00002A904F1C80000F08BFD02A802F026FA1C
:1078D00002A841F60F0102F029FA02A904F59070FE
:1078E00002F0FCF902A802F019FA02A842F61921E6
:1078F00002F01CFA002302A900931222012304F5CE
:107900009C7000F0A3FD02A802F008FA6422202374
:10791000204684F8A421A4F8A63106B010BD00BF0B
:1079200038B50A4D0A4C2846FFF79CFF094A0A4918
:10793000284617F06BFE204609F0FAFC2046054A5F
:107940000649BDE8384017F061BE00BF88630020DB
:107950003065002000600020217802004D130300F4
:1079600072DF704773DF704777DF704738B50546C1
:1079700008460C4602F0E8F9102803D080280ED003
:10798000012038BDEB7FA2881B2B0EDCE9180320F9
:10799000E85448704A80EB7F0433EB77F0E7A36844
:1079A000002BEDD0E97F0D2901DD002038BD6A18DC
:1079B000112068540721517058681C689968DB6869
:1079C000C2F80E30C2F80600C2F80240C2F80A102F
:1079D000EB7F1233EB77012038BD00BF0022C27766
:1079E0000270704730B5D1E9042485B0CD68074BEB
:1079F00000936946CDE902240195FFF7B7FF0446DD
:107A0000684602F08BF9204605B030BD1C350400F5
:107A1000F0B589B0064620221348694602F0F2FD0F
:107A2000F37FC2181D2A0CDDC3F11D04E4B2E21875
:107A30001D2A4FF00005D8BF082705DD284609B0EC
:107A4000F0BD044601250927F218601CF054694670
:107A50005770901C224618F047FCF27F0232144403
:107A60002846F47709B0F0BD68650020C27F1C2A63
:107A700001DD0020704710B403469C180220985482
:107A80000120A1706070DA7F0332DA775DF8044B71
:107A9000704700BF0023C3770370704710B4084AD3
:107AA000084C094902620022C0E90A41C0E90C22DF
:107AB0005DF8044B0270C27742628263704700BF78
:107AC000FF0101002000F40020001E00C185704766
:107AD000018581854285704780F82210704700BF7C
:107AE000F0B5154605EB8503274A89B0044603EB3C
:107AF000830300200E469B0011680290CDE90460CC
:107B0000ADF8143094F821308DF80830CB07CDE96A
:107B10000600039009D41D491D4BC87FE77F98815B
:107B200001201C6099609F801060194902AA04F12D
:107B30002000FFF715FF10B1002009B0F0BD94F848
:107B400020101448019102F0BBFD0199024601206A
:107B5000FFF70AFF0028EFD194F820000121FFF77A
:107B600001FF0028E8D10B4802F004FE628EA685D2
:107B700095424FF0010094BF521B921A628684F81E
:107B8000230009B0F0BD00BF50650020E46B002069
:107B90005465002068650020F0B5002361F30F03F1
:107BA0002D4D044661F31F4389B00363FA21284633
:107BB00002F08AFDE68D2949278D0868049706EBB7
:107BC000860303EB830300229B000592ADF814307B
:107BD00094F8213002928DF80830C307CDE90622CF
:107BE00003920BD41E4BE27F95F89B069A8005F218
:107BF0007C6501221C609D6098810A60184902AA78
:107C000004F12000FFF7ACFE10B1002009B0F0BD78
:107C100094F820101048019102F052FD019902469B
:107C20000120FFF7A1FE0028EFD194F820000121E8
:107C3000FFF798FE0028E8D1074802F09BFD638E0D
:107C4000A7859E424FF0010094BF9B1BDB1A638601
:107C500084F8230009B0F0BD68650020506500205D
:107C60005465002030B50B888D88112B85B00446F3
:107C700005D0262B33D0102B25D005B030BD436A5C
:107C8000EB40DB07F9D52E4801F014F90028F4D1B8
:107C9000636A94F82310012202FA05F523EA05032A
:107CA00063620029E9D194F82230002BE5D0238EBD
:107CB00023486386FA2102F007FDE28D218D2046DC
:107CC000FFF70EFFD9E7CB7B012BD6D1426A03FA2F
:107CD00005F515430023456280F82330CDE70B7A84
:107CE000012BCAD1002380F823304FF4FA711448D5
:107CF00002F0EAFC238E5BB1658E95B1A36B0BB1EC
:107D00009847658E618D2A462046FFF7E9FEB4E765
:107D1000A36B03B19847618D00222046FFF7E0FE78
:107D2000ABE7074802F03AFD626B002AA5D0009548
:107D300003AB29462846039512F02CFF9DE700BFB0
:107D40006865002075DF704710B44FF010144FF4D1
:107D500048010022C0E90041C0E902225DF8044B5D
:107D6000704700BF014800F0ABBE00BF586C002058
:107D7000F8B500250D4F2E4601E0142D14D0A9B200
:107D8000384602F0DFFC013504460028F5D000F04B
:107D900045FD0028F1D0204600F04AFD022804BF2E
:107DA0000136F6B2142DEAD13046F8BD68650020E0
:107DB00070B58E881B480C4694B0314602F0C2FC68
:107DC00023881A2B05D01F2B1CD0102B0FD014B0DA
:107DD00070BD054600F024FD0028F8D0284600F0CC
:107DE00021FD0028F3D1284600F082FDEFE7694627
:107DF00000F066FD0028EAD06A4631460A4801F0E4
:107E0000EDFBE4E754F8080F61686B4603C33046A6
:107E1000BDF80030ADF802306946FFF793FF14B0AB
:107E200070BD00BF6865002088650020AADF70472C
:107E3000ABDF7047ACDF7047ADDF7047AEDF704738
:107E4000B0DF704710B5044B044640F8043B01F026
:107E500065FF204610BD00BFD434040010B5054BAB
:107E6000044640F8043B01F059FF204612F078FB2D
:107E7000204610BDD434040070B57B4B04461B680B
:107E8000836196B0043001F06FFF94F82E30A06942
:107E900013F0320208BF84F82F2013F00C0308BF40
:107EA00084F830300DF10102694601F02DFF94F89D
:107EB0002F209DF8010015070DD09DF8001002F04D
:107EC0000F0301F00F059D424FEA12126DD243EAF3
:107ED000021284F82F2094F8303019070BD003F0E9
:107EE0000F0100F00F058D424FEA131369D241EAEA
:107EF000031384F8303094F82E1011F0300340F062
:107F000096800FAD0F93C5E90133C5E903338DF8B2
:107F10003C10AB610021ADF809109DF80A10206AF1
:107F20001493012363F342018DF808208DF80A10A1
:107F300008B1037873BB94F8263013B104F126031B
:107F4000129394F831200023D2070893079358BF67
:107F5000E38AADF81C3004F1080004F12F01CDE9EB
:107F6000050154BF1846E08AADF82000294604F107
:107F70003203E569099505AA0020FFF757FF05467A
:107F800028B994F8253043BB237D002B64D02846C4
:107F900016B070BD109019F012F902AB80B2ADF8B6
:107FA0004400ADF846001393C5E74FEA111101D123
:107FB00091428CD30A462B4643EA021284F82F20C2
:107FC00089E74FEA101001D1984290D30346294621
:107FD00041EA031384F830308DE7ADF80D009DF8C9
:107FE0000E2094F82F600C90012363F3420242F6B6
:107FF00008118DF80E208DF8123004AA0223ADF876
:10800000101003A90D90ADF83030ADF834300A925D
:1080100004F124030B910DF102020AA98DF80C6002
:108020000E93FFF705FF0028AED00546AFE70F4BD4
:108030008DF805200FAD1B788DF804300220002349
:108040000F938DF80600C5E90133C5E90333AB6131
:108050008DF83C1001AB5DE72146054800F0ECFED1
:10806000284616B070BD00BF64650020C834040007
:10807000A86900202DE9F0410B888E88502B8AB02A
:108080000C46054609D0512B04D18B79012B19D010
:10809000022B26D00AB0BDE8F081CB88428E9A42EE
:1080A00035D0EA8E9A42F5D16B6D002BF2D095F85F
:1080B0004420648A920700F18A802246294630468D
:1080C0009847E7E7836C002BE4D090F844205207F0
:1080D00001F108076CD43A46294630469847A379FF
:1080E000D6E7A27B042A46D0062A20D0012AD1D185
:1080F000EB6C002BCED095F84420170704F1080450
:1081000000F1A5802246294630469847C2E7076D10
:10811000002FC6D090F84430D90768D404F1120873
:10812000238A424629463046B847E388B9E7EA6BD6
:10813000002AAFD0002202A93046CDE90222CDE9C3
:108140000422ADF80C208DF80830FFF779FE2C6D75
:1081500054B195F84430D80700F19280B5F8423018
:10816000EA6B30462946A047E86B0FF0DFFE00239C
:10817000C5E90F338EE7E86B002878D0B5F84010DA
:10818000278A628A07EB020C00234FF0020E8C450F
:10819000CDE90633CDE908338DF818E039DD40F23A
:1081A0000913ADF81C3006A93046FFF749FE71E708
:1081B00003211A46009106AB08213846CDE9066531
:1081C000089712F0E7FC002889D1AB6C83E7032005
:1081D00000211A46009006AB0846CDE906650894D2
:1081E00012F0D8FC00287FF455AF6B6D65E7218A4B
:1081F000069604F11208042300933A46404606AB63
:10820000CDE90881079512F0C5FC00288DD12F6DAE
:1082100086E79DF81EC0ADF81C3004F114014CF047
:1082200001033844ADF822208DF81E300991ADF8D5
:10823000207018F059F8238A618AB5F842200B445F
:108240009BB2934238BF1346A5F84230ABE70321F7
:108250001A46009106AB0E212046CDE9066508942A
:1082600012F098FC00287FF415AFEB6C4AE74FF44E
:1082700080600FF041FE4FF48061C5E90F017FE798
:10828000E86BB5F84210069604230093224606AB2D
:10829000CDE90750099112F07DFC00287FF464AF0E
:1082A0002C6D5BE72DE9F04F0F464FF6FF718F42C3
:1082B00089B0064615461C4626D0F18A96F82E301F
:1082C0008C4228BF0C46DB0615D40DF1100B8C42F6
:1082D00028BF0C464FF00008718EADF810405A468A
:1082E0004FF6FF700595ADF81280FFF7A3FD4046ED
:1082F00009B0BDE8F08F3948394602F00BFA08B1F1
:10830000F18E31B9F18AE0E7344802F00FFA0746FE
:10831000D3E7002002230DF1100BADF81200ADF8E9
:1083200010305A460DF10E0338460593FFF784FDD1
:1083300043F2014398424FD000284AD19DF80E8065
:1083400008F00108B8F1000F46D02448394602F081
:10835000F9F98246A0B300F06DFA033883B2002C1D
:10836000C5D0CDF804804FF00009984605E0BDF86F
:108370000E30E41AA4B21D4444B3504600F06EFA25
:10838000A04503464246594628BF22463846BBB15F
:10839000ADF80E204FF00102738E8DF812200DF112
:1083A0000E02CDE90625CDF813908DF81790ADF8A3
:1083B0001030FFF743FD0028D9D0504600F058FA9E
:1083C0004FF00008404609B0BDE8F08FDDF80480AA
:1083D0008DE700F00108B5E7F18A78E768650020CD
:1083E00070B44E68164A86600260D1E90262154B8D
:1083F000154D1C7845600261142500220321C0E957
:108400000F22C0E91222C0E91422C660C58280F89A
:10841000311080F844200275826102628284C0F8C3
:108420002620C0F82A2080F82E20C26142864263AE
:10843000028780F82F4080F8304070BC704700BF42
:10844000D4340400C83404001C35040070B480F82F
:108450002E201C4A02601C4A42604A688260D1E9B0
:1084600002621A4C9DF80C502478026114210022FB
:10847000C1820321C0E90F22C0E91222C0E91422FF
:10848000C66080F844200275826102628284C0F86E
:108490002620C0F82A20C26142864263028780F803
:1084A0002F4080F8304080F8311045B19BB223B1A5
:1084B00062F3000180F83110C38270BC704770BC59
:1084C000C3827047D43404001C350400C83404004F
:1084D00080F82E10704700BF41B190F83130C18252
:1084E000002262F3000380F83130704790F8313099
:1084F000012262F3000380F83130704780F82F10BA
:1085000080F83020704700BF51F8322F0260496870
:108510004160704730B5C48A83B0944223460D460B
:1085200028BF1346418E019500246A464FF6FF701E
:10853000ADF80030ADF80240FFF77CFC18B9BDF88B
:10854000000003B030BD204603B030BD10B490F839
:108550002E4014F0100407D013465DF8044B0A4671
:108560004FF6FF71FFF79EBE20465DF8044B704743
:10857000A1DF7047A3DF7047A4DF70470023838328
:10858000704700BF006A00F0E3B800BF808B7047FF
:108590002DE9F0410B88CE88382B86B00C46054675
:1085A00006D0392B66D0362B43D006B0BDE8F0811B
:1085B00000F12407002E36D10A8A3846314602F0EF
:1085C00081F994F80C80B8F1010F2CD0B8F1040FA8
:1085D000EBD1286A00F0BCF801465C4802F0B2F822
:1085E00000F028F92A8E053883B2934228BF13463B
:1085F000002B00F09A80218AE289286AAC8B8DF8E2
:108600000D600A44E96A05918DF80C80ADF81230CE
:10861000ADF81020ADF80E4000F09AF803A9FFF76E
:10862000A9FF0028C1D0384602F064F906B0BDE8C1
:10863000F081006A00F08CF80146444802F082F8AC
:1086400000F0F8F807466EBB05F12406E2893046D3
:1086500004F1100102F036F92B8E2BB1F81EE389DC
:1086600080B20138834255DA304602F043F906B051
:10867000BDE8F0810B7B012B1AD0022B95D1836BC7
:10868000002B92D090F83C208F8892071FD401F1E4
:108690001006E28931462846984761893846FFF737
:1086A0006BFF82E705F12407384602F023F9BDE7A6
:1086B000436B002B3FF479AF90F83C20D10717D4DF
:1086C00004F11006E2893146284698476DE7C989CA
:1086D000039004F1100603201A46009003AB3046C5
:1086E000CDE9046112F056FA0028D6D1AB6BD0E781
:1086F000E189039004F1100603201A46009003ABB1
:108700003046CDE9046112F045FA00287FF44DAF00
:108710006B6BD7E7286A00F01BF86A8EA98B92B2C0
:10872000FFF726FF00289FD13FE7AA8B286AADF804
:108730000E2040F20511ADF80C10CDE9043300F025
:1087400007F803A9FFF716FF6DE700BF6865002073
:10875000808870478FDF704790DF7047B1DF7047C8
:10876000B5DF704710B5074B03600446806A10F010
:1087700031FAE06A10F02EFA206B08B110F02AFAF4
:10878000204610BDEC34040010B5094B03600446CC
:10879000806A10F01FFAE06A10F01CFA206B08B132
:1087A00010F018FA204611F0DBFE204610BD00BF85
:1087B000EC34040070B504460D4692E80300A58031
:1087C0000E0CA061A183144DA67717201B2156899A
:1087D0002560E0809589D089E181D1796581012288
:1087E00022752274A08161741846194626819DF86D
:1087F00010500FF045FC2946A06228460FF040FCBF
:108800004FF4885100234FF6FF72E182E0626282EA
:1088100023636375204670BDEC340400007D70470F
:10882000407D7047C07D113818BF0120704700BFE0
:10883000407C7047C0887047008970474B7D10B4FA
:108840004BB11F310C688A888B79046082805DF897
:10885000044B837170471831F4E700BF08B56621F7
:10886000806A10F02FF8003818BF012008BD00BF43
:1088700008B500231A461946806A0FF033FC003809
:1088800018BF012008BD00BF818800F11F02407C95
:1088900002F076B838B50A4605460C468188407C19
:1088A00002F05AF82146012051F8483FC5F81F3020
:1088B0008B888A7985F82520A5F82330687538BD1E
:1088C00038B50A4604460D4600F11801407C02F016
:1088D0008DF8607550B1294651F8483FC4F81F30F3
:1088E0008B888A7984F82520A4F8233038BD00BF0E
:1088F00010B5447D24B100F11F01407C02F054F812
:10890000204610BD70B50B88113B82B00C46054661
:10891000462B2BD8DFE803F0383B2A2A2A2A2A2ABA
:108920002A422A2A2A2A2A2A50585E642A2A2A2ACD
:108930002A2A2A2A2A2A2A2A2A2A2A2A2A2A2A2A97
:108940002A672A942A2A2A2A2A2A2A2A2A2A2A2AE0
:108950002A2A2A2A2A2A2A2A2A246A2A752C8400C0
:108960000023A8881A461946FFF7F8FE02B070BD2A
:108970008B79002BFAD1006BAB750028F6D01A4624
:1089800019460FF0AFFBF1E700230375EEE74B89C3
:1089900003818B894381CB898381E7E70B7AC37598
:1089A000112BE3D0818800F11F02407C02F0D6F841
:1089B00003460028DAD1D4E7002301A98088ADF866
:1089C0000430FFF7C7FED1E70B7A002BCED14B7AEC
:1089D0000374CBE7002211468088FFF7BDFEC5E790
:1089E0000B89C381C2E74B89C380BFE7006B0123BA
:1089F000AB750028BAD000231A4619460FF072FB57
:108A0000B4E7417C164801F095FEE388014699429F
:108A100028BF194689B2A888E980FFF7A1FEA5E71B
:108A20008B79002BA2D0002600231A461946A86A8B
:108A30000FF058FB0136A279F3B29A42F4D895E7C9
:108A40008B7A002B92D0002600231A461946E86A3A
:108A50000FF048FB0136A27AF3B29A42F4D885E7C8
:108A60006865002070B58AB086880B4606A84FF46A
:108A70002851144605934FF6FF7501F057F9012070
:108A8000CDE90105059B0094314606AA044800F093
:108A90006FF8044606A801F041F920460AB070BDFF
:108AA000A869002010B50446043001F0A7FE034B6E
:108AB000236000232375204610BD00BF0100FFFF87
:108AC000017D01B1704710B50446043001F0A0FEED
:108AD0000123237510BD00BF007D70470B88322B2A
:108AE00010B504D0332B17D0302B08D010BDCB8855
:108AF000DBB1041D2046BDE8104001F0FBBECB8871
:108B0000041D002BF6D14B89002BF3D00A312046EF
:108B10000A2201F0D7FEEDE7CB88002BE9D14A8984
:108B2000002AE6D002EB420204E04A89002AE0D0A3
:108B300002EB82025200041D023292B20A31204638
:108B400001F0C0FED6E700BFA0DF704710B50446B5
:108B500000F5F87001F052FE2046F822002117F0CF
:108B6000EBFBF822A018002117F0E6FB204610BD11
:108B70002DE9F04782B00546BDF82C60BDF83040C5
:108B80002048ADF80460BDF828A0ADF80640904636
:108B900099460F4601F0D6FD05F5F875064603E047
:108BA000FFF74AFE0FF08CF9284601F089FE0446D3
:108BB0003046002CF4D10121284601F029FE52460E
:108BC0004946284601F040FE08F10401384601AA52
:108BD000FFF7BAFF30B1284601F024FE204602B06C
:108BE000BDE8F0874FF4FA71284601F033FE20EA21
:108BF000E074284601F016FEA4B2204602B0BDE89B
:108C0000F08700BF686500202DE9F04F8F880D8840
:108C100085B0884604463946864801F093FDA5F1A3
:108C20001003012B814640F2908094F854203AB30F
:108C3000002633461633502D54F823A069D0512D09
:108C40001AD198F80630B8F808B0022B53D0BBF10F
:108C5000000F11D051466846FFF756FCBDF80030B2
:108C60005B4559D0514602A8FFF74EFCBDF80C30C9
:108C70005B4551D094F854200136F3B29342D9D3D6
:108C800094F84C31002B00F0D18004F5A679002631
:108C900004E094F84C310136B34220DD59F8040F5A
:108CA000FFF770FCB842F4D1382D03D0392D01D034
:108CB000362DEED1B8F80AA0BAF1000FE9D0D9F8F4
:108CC00000B05846FFF762FC5045E2D15846414695
:108CD000FFF75EFC94F84C310136B342DEDC112D17
:108CE00055D0352D04D1B8F80A30002B40F08F80D4
:108CF00005B0BDE8F08F98F80E30062BA7D1DAF852
:108D000000305046DB68414698474846FFF78AFDE9
:108D1000B0E7B8F806B09AE7DAF800305046DB68FA
:108D2000414698474846FFF77DFD0028A2D0502DC8
:108D3000A0D1514602A8FFF7E7FBBDF80C305B4518
:108D400098D14846FFF7A0FD94E72378002B3FF425
:108D50006CAF0026112D33460CD004EB830339464B
:108D6000586803685B68984701362278F3B29A42E4
:108D7000F3D85AE704EB83033946586803681B6845
:108D8000984701362278F3B29A42F3D84DE7D3B12F
:108D90000026334605E094F84C210136F3B29A429E
:108DA00011D904EB8305D5F85001FFF7EBFBB8426E
:108DB000F1D1D5F85001FFF7E1FB013694F84C21D1
:108DC000F3B29A42EDD894F8F820002A90D000250A
:108DD0002B4604EB8303D3F8FC008388BB420AD004
:108DE0000135EBB2934283D204EB8303D3F8FC004A
:108DF0008388BB42F4D103681B689847013594F817
:108E0000F820EBB29342E4D305B0BDE8F08F04F54F
:108E1000F874B8F80C20204608F1100101F052FD5A
:108E2000204605B0BDE8F04F01F064BD112D7FF480
:108E300058AFC8E76865002090F85420272A0CD85E
:108E400010B4034602F11604013280F8542043F8AE
:108E5000241001205DF8044B70470020704700BFCC
:108E60000378132B06D800EB830201330370012033
:108E7000516070470020704778DF70477ADF704795
:108E8000054A034692E80300002283E80300C3E991
:108E900002221846704700BFF434040008B5FFF7FB
:108EA000EDFF08B1002008BDFFF7E6FFB0FA80F043
:108EB000400908BDF8B500250D4F2E4601E0142DE0
:108EC00014D0A9B2384601F03DFC01350446002813
:108ED000F5D0FFF7A3FC0028F1D02046FFF7A8FC4F
:108EE000012804BF0136F6B2142DEAD13046F8BD90
:108EF00068650020704700BF8ADF704730B40D4CB2
:108F0000C4621F25002250248584A025C0E91122B7
:108F1000C0E90F22A0F84650A0F84840006230BCDB
:108F20008262028680F838204263C264A0F8502032
:108F3000704700BF000180002DE9F04F10468DB052
:108F400016460C4600F000FFC5B2102D4FD0B66893
:108F500007220623A16994F81C9001918DF80D2039
:108F60008DF80C30ED080DF10C080DF10E0A0027FC
:108F7000B9F1010F0A97CDE90477CDE90677CDE97C
:108F80000877CDF82B700ED998F8000001994B4660
:108F90004A7882420FD00A78D4432344013213F036
:108FA000FF031144F4D108F10108C245E0D10020CB
:108FB0000DB0BDE8F08F11F8024B013CE4B222463F
:108FC00004A817F091F90DF1100B1CB9EBE714F0A0
:108FD000FF04E8D058462A46314617F077F9641B5B
:108FE000AB440028F3D101200DB0BDE8F08F04366A
:108FF00003220223AEE700BF2DE9F0430B888E88E1
:10900000103B87B00D4604460D2B2CD8DFE803F04B
:1090100077072B2B2B2B2B2B2B2B2B842B2E836A85
:10902000F340DB071FD55648FEF7A2FED8B9A36A66
:1090300094F82C20012505FA06F623EA0606A66216
:109040008AB994F82D3073B11F232462A38404F1EC
:10905000200104F14400FFF74FFF20B9494801F017
:1090600089FB84F82C5007B0BDE8F08390F92E20DE
:1090700091F91B309A423ADC90F8383001F1080837
:109080000BB3DFF80491002602E0D6B2B34218D940
:10909000636BCDF8089003EB061302AA596803919D
:1090A000D3E902734146204605930497FFF744FF36
:1090B000074602A800F032FE94F83830721C002FE8
:1090C000E3D09E4213D094F82F30002B49D095F86E
:1090D0002430012B0BD9296A4A78FF2A30D00A782C
:1090E000D0430344013213F0FF031144F4D104F1DF
:1090F00020010020FFF700FF07B0BDE8F083CB7B25
:10910000022BB0D1836A012202FA06F63343002211
:10911000836280F82C20A6E70B7A012BA3D10025CF
:1091200080F82C50174801F039FB226C002A9AD0A5
:10913000009502AB29462846029511F02BFD92E7D7
:1091400011F8025B6A1ED2B2022A28BF022202A8CC
:1091500017F0CAF8012DCAD0228EBDF808309A4205
:10916000C5D1E26B002A3FF47EAF01230093404655
:1091700002AB2421CDF8088011F00CFD73E700BF8D
:1091800078650020686500201C35040046DF7047C4
:109190007FDF704780DF704781DF704785DF704772
:1091A00086DF704738B51C460D46034611462846F3
:1091B0002246984734B1014600222846BDE838408F
:1091C000FFF7E8BF38BD00BF10B50C4682B00346BC
:1091D0006946204698476A4620460121FFF7DAFF94
:1091E00002B010BD10B50446083001F0E1FE074B97
:1091F0002360032200232271C4F81034C4F814340D
:10920000C4F81834C4F81C34204610BD35071003C8
:1092100030B50446ADF55F7D00F108058F4801F0DB
:109220005BFE0821284601F0C7FE684601F0CEFE2D
:109230006846082101F0CEFE6946284601F06CFE22
:1092400004F54F714122684601F0D2FE684601F0F4
:10925000CBFE94F85C0394F85B2394F83D1394F8E8
:109260003E3384F83D0384F83E2394F85A0394F87F
:10927000592394F83F5384F85C1384F85B3394F8D3
:10928000401394F8413384F83F0384F8402394F862
:10929000580394F8572384F85A5384F8591394F8D0
:1092A000425394F8431384F8410384F8583394F8F4
:1092B000560394F8443384F8422394F8552384F8F1
:1092C000575384F8430384F8442384F8553384F8CF
:1092D000561394F8451394F8540394F8532394F8D0
:1092E000463384F8450384F8462394F8520394F8EF
:1092F000512394F8475384F8541384F8533394F863
:10930000481394F8493384F8470384F8482394F8C1
:10931000500394F84F2384F8525384F8511394F86F
:109320004A5394F84B1384F8490384F8503394F863
:109330004E0394F84C3384F84A2394F84D2384F870
:109340004F5384F84B0384F84C2384F84D3384F84E
:109350004E1394F85D1394F87C0394F87B2394F8EF
:109360005E3384F85D0384F85E2394F87A0394F8FE
:10937000792394F85F5384F87C1384F87B3394F852
:10938000601394F8613384F85F0384F8602394F8E1
:10939000780394F8772384F87A5384F8791394F84F
:1093A000625394F8631384F8610384F8783394F873
:1093B000760394F8643384F8622394F8752384F870
:1093C000775384F8630384F8642384F8753384F84E
:1093D000761394F8651394F8740394F8732394F84F
:1093E000663384F8650384F8662394F8720394F86E
:1093F000712394F8675384F8741384F8733394F8E2
:10940000681394F8693384F8670384F8682394F840
:10941000700394F86F2384F8725384F8711394F8EE
:109420006A5394F86B1384F8690384F8703394F8E2
:109430006E0394F86C3384F86A2394F86D2384F8EF
:109440006B03012084F86F5384F86E1384F86C2347
:1094500084F86D330DF55F7D30BD00BFF46C0020E6
:109460000B7803F0FE03042B01D00020704770B589
:1094700015468CB00C462022002104A816F05CFF93
:1094800028686968AA68EB686D460FC59DF80010EA
:109490009DF80F209DF801609DF80E509DF8020088
:1094A0008DF80F1023469DF80D108DF800209DF8C3
:1094B00003208DF80E608DF801509DF80C609DF82A
:1094C00004508DF80D008DF802109DF80B009DF8EA
:1094D00005108DF80C209DF80A208DF803608DF89A
:1094E0000B508DF804008DF805208DF80A109DF8BA
:1094F000061033F8042FADF810209B789DF8092052
:109500009DF81D009DF810609DF81F508DF8091002
:109510008DF806209DF811109DF81E208DF81D3045
:109520009DF807308DF812008DF81F609DF8080037
:109530009DF813608DF810508DF81E109DF81C508A
:109540009DF814108DF811208DF808309DF81B201F
:109550009DF81A308DF807008DF81C608DF81350B7
:109560009DF815608DF81B108DF8142068468DF855
:1095700015309DF819109DF817209DF818309DF8AA
:1095800016508DF818208DF816108DF817308DF8BC
:109590001A608DF81950FFF7F9FD62789DF82F30A9
:1095A0009DF82E009DF82D108DF821009A428DF81F
:1095B000221004F1010404D0012080F001000CB05D
:1095C00070BD6278C3B29A4204F10104F4D16278AA
:1095D000CBB29A42F0D10020EFE700BF08B5137C70
:1095E000DB0758BF1C32084602F11201FFF7D6FD17
:1095F000B0FA80F0400908BDF0B58F880E46ADF591
:109600006B7D04463946464801F09CF83388133B8D
:109610000546072B2FD8DFE813F03E005F006D00F2
:109620002E002803870008003100337AB3B9737B1A
:109630009B070ED4294602A8FFF700F90299BDF84E
:109640000C209DF80E3084F80C34C4F80614A4F8ED
:109650000A24284604F2BE31FFF71CF9D4F8182476
:109660004AB1307A0D9002230021009308460CABDA
:109670000C9711F08FFA0DF56B7DF0BDD4F81C241A
:10968000002AF8D001230021009308460CAB0C9768
:1096900011F080FAEFE704F2BE3304F2DA320C93F1
:1096A00004F2F63300251092119304F23D3204F2D5
:1096B0007E330F921393CDE90D551295FFF7B8F84D
:1096C00001280CBF22462A460CAB29463846FFF734
:1096D0005FFD0DF56B7DF0BD0CA9FFF7F1F80346BA
:1096E000002800F0D2820CA9384600231AAAFFF7FE
:1096F00057FDC0E7D4F810140029BCD0B37B094A49
:1097000003F001030F930423CDE90C1706F10800C1
:10971000009306210CAB0E9011F03CFAABE700BFB2
:1097200068650020A591020094F87E3394F89D238B
:1097300094F87FC394F89C6394F8805394F89B0347
:1097400084F89D33042194F89A3384F87D1384F8C7
:109750007E2394F8811394F8822384F89CC384F8C0
:109760007F6394F899C394F8836384F89B5384F8D7
:10977000800394F8985394F8840384F89A1384F837
:10978000813394F8971394F8853384F8992394F8E7
:10979000962384F882C384F8986384F8835384F80A
:1097A000970384F8841384F8852384F8963394F817
:1097B000862394F8953394F887C394F8946394F8C7
:1097C000885394F8930394F8891384F8952384F8C4
:1097D000863394F8922394F88A3384F894C384F8F7
:1097E000876394F891C394F88B6384F8935384F857
:1097F000880394F8905394F88C0384F8921384F8B7
:10980000892394F88F1394F88D2384F8913394F876
:109810008E3384F88AC384F8906384F88B5384F879
:109820008F0384F88C1384F88D3384F88E2394F896
:109830009E2394F8BD3394F89FC394F8BC6394F8C6
:10984000A05394F8BB0394F8A11384F8BD2384F8C3
:109850009E3394F8BA2394F8A23384F8BCC384F8F6
:109860009F6394F8B9C394F8A36384F8BB5384F856
:10987000A00394F8B85394F8A40384F8BA1384F8B6
:10988000A12394F8B71394F8A52384F8B93394F876
:10989000B63384F8A2C384F8B86384F8A35384F879
:1098A000A41384F8B62384F8A53384F8B70394F896
:1098B000A60394F8B51394F8A72394F8B43394F856
:1098C000A86394F8B35384F8B50384F8A61394F806
:1098D000A90394F8B21384F8B42384F8A73394F856
:1098E000AA2394F8B13384F8B36384F8A85394F8A6
:1098F000AB6394F8B05384F8B20384F8A91394F8D6
:10990000AC0394F8AF1384F8B12384F8AA3394F825
:10991000AD2394F8AE3384F8AD3384F8AE2384F8E5
:10992000B06384F8AB5384F8AF0384F8AC130CA88D
:1099300001F04CFB0CA8082101F04CFB04F27D3136
:109940000CA8412201F066FB0CA904AA202304F113
:10995000080001F00FFB0CA801F046FB9DF8101069
:109960009DF82F009DF811309DF82E209DF8126073
:109970009DF82D508DF810008DF82F109DF81300D4
:109980009DF82C108DF811208DF82E309DF81420A4
:109990009DF82B308DF812508DF82D609DF81550E4
:1099A0009DF82A608DF813108DF82C009DF8161084
:1099B0009DF829008DF814308DF82B209DF8173074
:1099C0009DF828208DF815608DF82A508DF8160026
:1099D0008DF817208DF828308DF829109DF8181073
:1099E0009DF827009DF819309DF826209DF81A60F3
:1099F0009DF825508DF818008DF827109DF81B0054
:109A00009DF824108DF819208DF826309DF81C2023
:109A10009DF823308DF81A508DF825609DF81D5063
:109A20009DF822608DF81B108DF824009DF81E1003
:109A30009DF821008DF81C308DF823209DF81F30F3
:109A40009DF820208DF81D608DF822508DF8211092
:109A50008DF81F208DF820308DF81E0094F87E03BD
:109A600094F89D1394F87F2394F89C3394F88063C2
:109A700094F89B5384F89D0384F87E1394F8810333
:109A800094F89A1384F89C2384F87F3394F8822303
:109A900094F8993384F89B6384F8805394F8836333
:109AA00094F8985384F89A0384F8811394F8840303
:109AB00094F8971384F8992384F8823394F88523D3
:109AC00094F8963384F8986384F8835384F8841365
:109AD00084F8962384F8853384F8970394F88603F2
:109AE00094F8951394F8872394F8943394F8886342
:109AF00094F8935384F8950384F8861394F88903B3
:109B000094F8921384F8942384F8873394F88A2382
:109B100094F8913384F8936384F8885394F88B63B2
:109B200094F8905384F8920384F8891394F88C0382
:109B300094F88F1384F8912384F88A3394F88D2352
:109B400094F88E3384F8906384F88B5384F88C13E4
:109B500084F88E2384F88D3384F88F0394F89E0361
:109B600094F8BD1394F89F2394F8BC3394F8A06341
:109B700094F8BB5384F8BD0384F89E1394F8A103B2
:109B800094F8BA1384F8BC2384F89F3394F8A22382
:109B900094F8B93384F8BB6384F8A05394F8A363B2
:109BA00094F8B85384F8BA0384F8A11394F8A40382
:109BB00094F8B71384F8B92384F8A23394F8A52352
:109BC00094F8B63384F8B86384F8B70384F8A41320
:109BD00084F8B62384F8A53384F8A35394F8A653E5
:109BE00094F8A72394F8B43394F8B50394F8A81321
:109BF00094F8B36384F8B55384F8B42394F8A95364
:109C000094F8AA2384F8A73394F8B13394F8B0C336
:109C100084F8A60384F8B31394F8B20394F8AB1352
:109C200084F8A86384F8B25394F8AC6394F8AF5303
:109C300084F8B12384F8AA3394F8AD2394F8AE33B2
:109C400084F8A90384F8B013384604A984F8ABC398
:109C500084F8AF6384F8AC5384F8AE2384F8AD3352
:109C6000FFF79AFA0DF56B7DF0BDD4F81424002AA5
:109C70003FF401AD0223002100930C920CAB064A85
:109C80000D97084610F086FFF5E438461A46194647
:109C9000FFF786FAEFE400BFC9910200A8DF704722
:109CA000704700BF30B5044683B0083000F05CF860
:109CB00004F10C010DF106020120FFF7EFFF05464C
:109CC00028B9044B04481C602146FFF7C9F8284610
:109CD00003B030BD64650020A869002030B44C6832
:109CE000C460D1E90241054A054D0260054A85601C
:109CF000C0E90441426030BC704700BF0435040035
:109D00001C3504000000111183790B70C3791370A6
:109D1000704700BF62DF704763DF7047704700BF66
:109D200010B5044610F01CFC204610BD10B4054CC4
:109D30008180002201210460C0E902225DF8044B09
:109D4000817170471C3504008379012B0AD0826829
:109D500032B9C26822B9012B8CBF80200020704725
:109D600080207047102070472DE9F047857982B038
:109D7000002D47D1C7680646002F47D010200EF0AF
:109D8000BBF88246384617F01AFA441E30B3DFF8A3
:109D90008490A84604E00134023C1FD4102D1DD04D
:109DA00017F804C0BCF12D0F07EB0402F3D099F8AB
:109DB0000030ADF805808DF8043012F8013C8DF8C4
:109DC00004301022002101A88DF805C017F0B2FA66
:109DD0006B1C023C0AF80500DDB2DFD5C6F808A00E
:109DE000BAF1000F0ED0B11D5046FFF793FFB168D6
:109DF000321D1020FFF790FFB0FA80F0400902B04A
:109E0000BDE8F087012002B0BDE8F087D0F808A0D7
:109E1000E6E700BF103504004DDF70474EDF7047A6
:109E20004FDF704750DF70474BDF704710DF7047E0
:109E30007CDF70477DDF704760DF704769DF704708
:109E400061DF704766DF704767DF7047704700BFAC
:109E50000C2011F027B800BF30B5224C224D83B042
:109E6000D4F828074FF0FF310EF02CFD0028F7D072
:109E7000C5B101A8FFF7D8FF0528F1D00028F8D117
:109E8000019B032B1BD8012BF3D918460DF0CAFDFB
:109E9000EFE70A2B04D0092B21D00B2B02D1012094
:109EA00006F058FD01A8FFF7BFFF0528D8D000280D
:109EB000F8D1019BA3F10902022AF3D8E9E7A3F143
:109EC0000902022AD5D80A2B04D0092B05D00B2B66
:109ED000CFD1012006F03EFDCBE70220FAE70220B9
:109EE000DEE700BF68650020257A03002DE9F04F0A
:109EF0002DED028B4FF4FA7089B00DF0FDFFB24EDC
:109F000000F1080308EE103A054606F5F06706F57D
:109F1000C86AD6F824074FF0FF310EF0D3FC0028B2
:109F2000F7D04FF4FA730DF116012846ADF816304C
:109F3000FFF786FF10B10528F3D1EAE7B5F80490E2
:109F4000B9F1130F00F2398106EB8903D3F83447D6
:109F50003CB129462046FEF7D5FC9C482946FFF730
:109F60004BFB2B88013B1B2B5AD8DFE813F0160163
:109F70005900590059005900590059005900590019
:109F8000590059005900590059005900B4001C00EB
:109F900059005900590059005900590059005900F9
:109FA00059005900A200DFF838824FF0000B58F832
:109FB000040F30B1FEF732FC18B10BF1010B5FFA60
:109FC0008BFBB845F3D1BBF1000F06D196F83037C3
:109FD0001BB159460C2010F025FF2046FEF728FC47
:109FE000012800F0EC80F26962B10223002195F8AB
:109FF00008C00093084606ABCDF81890CDF81CC0F9
:10A0000010F0C8FD09F5E67806EB8803586810B132
:10A0100003685B68984706EB88080023C8F804309B
:10A0200029465046FDF71EFE69482946FEF7E4FF23
:10A03000B6F832374B452B8800F0B480102B1ED079
:10A040002CB32046FEF7F4FB012803D15E482946D5
:10A05000FEF750FF2046FEF7EBFB02281BD05D48C1
:10A06000FEF73AFD00BB5C482946FEF7CDFDD6F869
:10A070008837002B3FF455AF2846984751E7EB7BD4
:10A08000012BDDD1AB88A6F83237002CD9D14E4850
:10A090002946FEF72FFF51482946FDF789FE4D4816
:10A0A000FEF71AFD0028DED04A482946FEF716FDC5
:10A0B000D9E7D6F88427002AB2D00223002195F9E7
:10A0C00008C00093084606ABCDF81890CDF81CC028
:10A0D00010F060FDA4E74FF00008D6F82C07CDF88B
:10A0E00000804346424603213D4C0FF071FF54F877
:10A0F000040F30B1FEF792FB18B108F101085FFAC6
:10A1000088F8BC42F3D196F830376BB1B8F1000152
:10A1100018BF01210C2010F085FE96F830371BB1D6
:10A1200001210C2010F07EFE09F5E67806EB88048C
:10A13000606820B103685B68984700236360EB7B2D
:10A14000012B0BBF96F8123796F8183796F813477D
:10A1500096F819470393342010F000FA06EB8808AC
:10A16000039B009418EE102A04464946FEF722FB92
:10A170002046C8F80440FEF75BFB012832D0B269E4
:10A18000002A3FF44DAF012300210093084606AB9F
:10A19000CDF8189010F0FEFC42E700214846FFF78A
:10A1A00051FE3DE7102B3FF46AAF112B7FF448AF0F
:10A1B0004FF6FF73A6F8323742E70446D1E6F2685D
:10A1C000002A7FF412AF1DE7686500208865002033
:10A1D000046C0020586C0020A869002078650020DD
:10A1E000986C0020B268002A3FF41AAF002100905A
:10A1F00006AB0846CDF8189010F0CCFC10E700BF75
:10A2000038B50446FEF73CFE04F11000FDF79CFD56
:10A2100004F12000FEF7E6FF04F58860FEF796FCE7
:10A2200004F5C860FDF73AFC04F27C60FDF7D6FB4C
:10A2300004F29C60FEF762FE04F5DE60FEF732FC7D
:10A240004FF480530025C4F8083716481649174ABA
:10A25000C4F80C0740F20113C4F81017C4F814270F
:10A26000A4F81837A4F81A5704F23470294650227B
:10A2700016F062F801224FF6FF73A4F81C5784F819
:10A280001E57C4F82457C4F82857C4F82C57C4F8EC
:10A290008857C4F8845784F83027A4F8323720460A
:10A2A00038BD00BF010A17000300010117000300B9
:10A2B000F0B5BF4E80F81C178DB080F81D270446FE
:10A2C00010F0CAF910F0D0F910F08EF93369B949DD
:10A2D000039303A8FFF7AAFD18B1002528460DB087
:10A2E000F0BD0120FFF79AFD0120FFF795FD012049
:10A2F000FFF796FD09A8FFF795FD099B9B0705D57C
:10A30000AD4BD3F80435002B00F0FE800023AB4AA0
:10A3100094F80D57049209A90120CDE909330B9354
:10A320008DF82450FFF78AFD0028D6D194F81D3708
:10A330000B90CDE90900181E18BF012094F81C5796
:10A340008DF82700049A8DF8263009A940208DF851
:10A350002550FFF773FD0028BFD194F80C17099022
:10A36000034661F30003CDE90A00049A8DF8243016
:10A3700009A9A020FFF762FD0028AED1D4F8083764
:10A380000A900B90049A099309A9A120FFF756FDA2
:10A390000028A2D194F81C37002B40F0B98094F823
:10A3A0001D37002B48D00023B4F81477049A099382
:10A3B000022509A92320CDE90A338DF82450ADF8F0
:10A3C0002670FFF73BFD002887D1CDE9090094F8FE
:10A3D0001D77B4F816370B90049A8DF8245009A90C
:10A3E00020208DF82670ADF82830FFF727FD0028D3
:10A3F0007FF473AF0990CDE90A0094F81837049AF6
:10A400008DF8245009A922208DF82630FFF716FD7B
:10A4100000287FF462AFCDE9090094F819370B905A
:10A42000049A8DF8245009A921208DF82630FFF7D1
:10A4300005FD00287FF451AF04A8FFF7FDFC0028BC
:10A440007FF44BAFCDE9070040F0010307A90220DC
:10A450008DF81C30FFF7F8FC00287FF43EAF204653
:10A46000FEF71CFD054600283FF437AF04F120003D
:10A47000FEF7CEFE337D52498DF808300D2202A83A
:10A48000FFF7D6FC00287FF428AF94F81D37002B87
:10A4900040F088800322002101200DF0AFFDC4F8B8
:10A4A000240700283FF419AF05AB0326CDE900636C
:10A4B0004449454800234FF4A0620EF029FD32467E
:10A4C000002101200DF09AFDC4F8280700283FF470
:10A4D00004AF06ABCDE900633C493D480023C822E8
:10A4E0000EF016FD3B4B4FF480021A603A4B00937E
:10A4F0000023184601224FF480710FF013FDC4F8B9
:10A500002C0700F003FAE9E6022006F023FAFDE644
:10A510000990CDE90A00B4F80E37049AADF8263058
:10A52000012509A923208DF82450FFF787FC002876
:10A530007FF4D3AECDE9090094F81C77B4F8103756
:10A540000B90049A8DF8245009A920208DF82670CC
:10A55000ADF82830FFF772FC00287FF4BEAE0990FA
:10A56000CDE90A0094F81237049A8DF8245009A90D
:10A5700022208DF82630FFF761FC00287FF4ADAE75
:10A58000CDE9090094F813370B90049A8DF8245004
:10A5900009A921208DF82630FFF750FC00283FF450
:10A5A000FEAE9AE604F11000FDF7DCFB72E700BF97
:10A5B000783504004D9E02000070024000600020CB
:10A5C0006035040070350400ED9E0200743504000F
:10A5D000599E020000E100E0519E020000B5084BC8
:10A5E00085B01B7D019108468DF80C3016F0E7FD13
:10A5F000019982B203A8FFF71BFC05B05DF804FBCC
:10A600007835040000B583B008460DF10601ADF8B9
:10A610000620FFF70FFC20B99DF8060003B05DF897
:10A6200004FB002003B05DF804FB00BF70B4234BB3
:10A630000E4605460FCB85B06C4607C49DF9002039
:10A640002380B24234D09DF90130B34230D09DF91D
:10A650000230B3422CD09DF90330B34228D09DF98B
:10A660000430B34224D09DF90530B34220D0FEB16E
:10A670009DF90730B3421BD09DF90830B34217D083
:10A680009DF90930B34213D09DF90A30B3420FD07F
:10A690009DF90B30B3420BD09DF90C30B34207D07B
:10A6A0009DF90D30B34203D0002005B070BC704757
:10A6B000012085F81E6705B070BC70479035040016
:10A6C00090F91E07704700BF70B5044682B0D0F8FD
:10A6D0002C070D460FF0A8FC4FF47A7206460023B3
:10A6E000A90DA80215F0D6FB002302460421D4F8D8
:10A6F0002C0700930FF06CFC0EB102B070BD0096F9
:10A70000D4F82C073346324603210FF061FC02B027
:10A7100070BD00BF132906D800EB8101D1F83407C2
:10A7200008B1FEF77BB80020704700BFB0F83207D1
:10A73000704700BF01290CBFB0F80E07B0F814072E
:10A74000704700BF13299ABF00EB8101D1F834078D
:10A750000020704710B5064C0021D4F828070DF0F2
:10A7600025FFD4F824070021BDE810400DF01EBFDE
:10A770006865002090F8303703B9704710B582B093
:10A78000D0F82C470EF0B4FD00230246009320467B
:10A7900001210FF01DFC02B010BD00BFF0B583B069
:10A7A000002405462346D0F82C07009422460321B6
:10A7B0000FF00EFC05F5E66605F5F06756F8040F98
:10A7C00020B1FEF72BF808B10134E4B2BE42F5D156
:10A7D00095F8303743B1211E18BF01210C2003B07A
:10A7E000BDE8F04010F01EBB03B0F0BD0148FFF71C
:10A7F00007BD00BF686500200020704700220121CE
:10A800004270C0E901220170C2818281704700BF9D
:10A8100010B50446017001B110BD0A200DF030FCE6
:10A82000606010BD037810B5044643B100230122D7
:10A830006370C4E90133E381A381227010BD4068D5
:10A840000EF0C8F9F2E700BF002381608281C38166
:10A85000704700BF037870B504460D46B3B946682B
:10A86000012363704FF47A720023A802A90D15F03A
:10A8700011FB014630460EF025F898B923780026E2
:10A880004FF0FF356670A3B9284670BD0322002142
:10A8900001200DF0B3FB064660600028E0D14FF0C8
:10A8A000FF35F1E7E58923780026ADB26670002B0D
:10A8B000EAD060680EF08EF96660284670BD00BF71
:10A8C0004078704738B504468089824228BF0246E6
:10A8D000154619B1A06815F007FDA089E389A268A3
:10A8E00015FA83F3401B9BB22A44A081E381A26046
:10A8F000284638BD406820B100231A4619460DF09D
:10A90000F1BB7047B1DF7047B2DF704708B50F4841
:10A910000CF016FF0E490D4807F0F6F928B10D4965
:10A920000A4807F0F1F950B108BD0949074807F096
:10A9300007FA0849054807F0E7F90028F4D1BDE80F
:10A9400008400449014807F0FBB900BF747E0020AD
:10A95000A0350400B435040070B586B00E4603235C
:10A960000021054614460093044A0496084603ABAA
:10A970000395059410F00EF906B070BD45AC0200C9
:10A9800070B586B00323144606460D460093104664
:10A9900003AB044A05940721CDE9036510F0FAF8EA
:10A9A00006B070BD75AD020030B50A4691B0897928
:10A9B0005379039111790293D378094D094C019190
:10A9C00000939378527801280CBF2946214604A8A9
:10A9D00016F0A0FB04A9044807F00AFA11B030BD34
:10A9E000C8350400F8350400747E00202DE9F043DA
:10A9F000D1B00B78032B04AF0D460446904668D9BE
:10AA00005A08022A5ED14F4A4F49504BDFF848910D
:10AA1000012818BF11460022381D07F0C1FB4B4921
:10AA200007F1680007F0F2FA07F1CC0611E00246E0
:10AA3000414607F1680007F0DBFB08F138022946C0
:10AA40004846FEF70DFD044678BB07F1680007F0A5
:10AA500045FC0022391D304607F072FC07F1D0009A
:10AA60000DC8D7F8DC10D7F8E4407B67D7F8E8309A
:10AA700097F8E0C0F8663A67B967412207F1EC0140
:10AA800007F18800C7E9204387F87CC015F02CFC4B
:10AA900007F1680007F04EFC044607F1680044B176
:10AAA00007F054FA5028D0D1C1E707F1680007F049
:10AAB00015FC381D07F012FC204607F59A77BD46B5
:10AAC000BDE8F0830024204607F59A77BD46BDE82F
:10AAD000F083E9468CB08979AB786A78039169791B
:10AAE0000291297901911A4E1A49E878009004AD33
:10AAF000012C08BF3146284607F1CC0616F00AFBA8
:10AB00001249304607F082FA29463046002207F003
:10AB10002BFB044650B90024304607F0DFFB2046EB
:10AB2000CD4607F59A77BD46BDE8F083304607F07D
:10AB30000DFA021EEFDD92B24146304607F058FB97
:10AB4000EAE700BFB4350400A0350400747E00209D
:10AB5000C8350400F835040088650020F0B5ADB0B4
:10AB600095799378344E1446527803956579029519
:10AB700094F804C0CDF804C0304DE478009404AFDC
:10AB80000C4601280CBF3146294607F10C0016F08F
:10AB9000C1FA2B4B07F10C0107F13C00002207F032
:10ABA000FFFA07F13C0007F0C5FB40B9002407F1AC
:10ABB0003C0007F093FB2046A437BD46F0BD07F1EB
:10ABC0003C0007F0C3F9051E08DD07F13C0007F063
:10ABD0004DFB291807F13C0007F02AFB07F13C0068
:10ABE00007F0B4F9051E08DD07F13C0007F03EFB55
:10ABF000291807F13C0007F01BFB07F13C0007F0A8
:10AC0000A5F90028D2DDC31D23F007036D46ADEB87
:10AC1000030D82B204A907F13C00C7E9001207F056
:10AC2000E7FA2046D7E900120323FFF76BFEB0FADC
:10AC300080F46409AD46BAE7C8350400F83504006D
:10AC4000747E0020F0B5B5B092F84E5092F84A30BC
:10AC5000434E144692F84920039594F84D500295BE
:10AC600094F84C50019594F84B5000950D463D4991
:10AC700004AF012818BF314607F12C0016F04AFA3C
:10AC8000394807F12C0107F03FF86E4600284AD1F9
:10AC9000354B07F12C0107F15C00012207F080FA27
:10ACA00007F15C0007F046FB18B9C437B546BD464E
:10ACB000F0BD502107F15C0007F076F950222146E3
:10ACC00007F15C0007F0AEF80023294627487B61B6
:10ACD000C7E90333C7E90633C7E90833BB62FFF7A7
:10ACE00031FD07F10C012022FDF7BCFE3B7B03B3D5
:10ACF00007F10C0016F063FA013082B2C1B207F11D
:10AD00005C007A6007F050F97A6807F10C0107F1EE
:10AD10005C0007F087F807F15C0007F0DFFAC43742
:10AD2000B546BD46F0BD07F12C010F4807F060F8AD
:10AD3000AEE794F8491094F84D3094F84E20039102
:10AD400094F84A10029194F84B10019194F84C1029
:10AD5000009107F10C00064916F0DCF9C8E700BFC6
:10AD6000F8350400C8350400747E002068650020B2
:10AD7000283604002DE9F043ADB00C4604AF0021A5
:10AD8000032306461546204607F10A027981FFF79C
:10AD9000BBFD7B89E84623B9A437C546BD46BDE85F
:10ADA000F0830733DB08A8EBC3039D460DF11009C0
:10ADB000204607F10A0249460323FFF7A5FD044692
:10ADC0000028E9D1A979AB786A7803916979029171
:10ADD000297901913D483E49ED780095012E08BF43
:10ADE000014607F10C0016F095F93A4B07F10C01FA
:10ADF00007F13C00012207F0D3F907F13C0007F00E
:10AE000099FA0028C8D0214607F13C0007F010FA53
:10AE100007F13C0007F09AF8041E08DD07F13C003A
:10AE200007F024FA211807F13C0007F001FA07F1B6
:10AE30003C0007F08BF8041E08DD07F13C0007F02A
:10AE400015FA211807F13C0007F0F2F907F13C0070
:10AE500007F07CF87C8980B2A04213D0E1B207F100
:10AE60003C0007F0A1F82246494607F13C0006F0F5
:10AE7000D9FF07F13C0007F031FAA437C546BD46BB
:10AE8000BDE8F083E31D6D46DB08A5EBC3039D46DB
:10AE900004A9224607F13C00796007F0A9F9796816
:10AEA0007A89484615F012FA08B9AD46E1E707F18C
:10AEB0003C0007F0F7F97B89DB43191807F13C00E8
:10AEC00007F0B6F9AD467C89C8E700BFC835040075
:10AED000F8350400747E002038B590F8E8500DB1C4
:10AEE000284638BD012380F8E830044611F096FD6D
:10AEF0000028F5D12046BDE8384000F0ADB800BFCD
:10AF000010B5044C204600F0A3F8002384F8E83084
:10AF100010BD00BFF46C002003680A689A4201D09B
:10AF20000020704770B5044684B04FF453700D464E
:10AF30000CF0E2FF0646B0B10C4800F0ABF8234637
:10AF40000435002153F8042B0095CDE9016108492F
:10AF500011F0FEFB044630460CF0E8FFB4FA84F032
:10AF6000400904B070BD002004B070BDF46C002036
:10AF70002DB50300F0B585B006464FF453700D466D
:10AF8000174603930CF0B8FF78B1044600903A4698
:10AF9000281D311D03AB11F059FC054620460CF06D
:10AFA000C5FF15B9039805B0F0BD002005B0F0BD90
:10AFB00000220260704700BF10B50446084611F039
:10AFC000B7FC2060003818BF012010BD00220260CD
:10AFD000704700BF10B50446084611F0A9FC206078
:10AFE000003818BF012010BD00230360704700BF68
:10AFF00000B583B00430019201AB0A46042111F080
:10B0000021FB18B9019803B05DF804FB002003B0E0
:10B010005DF804FBF0B5044683B04FF463700E4650
:10B0200017460CF069FF054678B1019054F8040BFF
:10B0300000943A463146012311F040FA044628466E
:10B040000CF074FFB4FA84F0400903B0F0BD00BF07
:10B05000002280F8E420704770B590F8E4400CB10D
:10B06000204670BD012380F8E43005464FF4BF5000
:10B070000CF042FF06460028F2D03146284610F078
:10B0800041FC0446B4FA84F4304664090CF04EFFE7
:10B09000204670BD704700BF0146014800F0FCBA71
:10B0A000006E002038B5064B1D783DB100242046C7
:10B0B000013400F035FEE0B28542F9D838BD00BF5A
:10B0C000FC6D0020007EFF280AD010B500F0C8FDFE
:10B0D000044608B1204610BD0FF07CFC204610BD90
:10B0E00000207047007EFF280ED000B583B00DF120
:10B0F000070100F00BFE20B19DF8070003B05DF8DA
:10B1000004FB4FF0FF30F9E74FF0FF30704700BF0E
:10B11000007EFF280FD000B583B001220DF107019A
:10B1200000F0AAFD20B19DF8070003B05DF804FB14
:10B130004FF0FF30F9E74FF0FF307047007EFF28F7
:10B1400001D000F0EDBD7047007EFF2801D000F077
:10B150004FBE0020704700BFF8B50646007EFF28AE
:10B160001CD017465AB10D46144600F055FD29462D
:10B17000224680B1307E00F017FE241A01D13846F5
:10B18000F8BD05440FF026FC307E00F045FD294651
:10B1900022460028EED13F1B3846F1E70020F8BDDB
:10B1A000002A00F093802DE9F041494991F81C7183
:10B1B00091F81D6191F81E8192B01D46B81C08F1EE
:10B1C00001031446B21C81F81C0181F81D2181F88D
:10B1D0001E3101A84222002115F0AEF8412D71D98F
:10B1E0007B1CDBB28DF81E308DF827308DF83130A6
:10B1F00040F608320223ADF804208DF807308DF8B0
:10B2000012308DF833308DF83B3040F2022240F29C
:10B210000943ADF80820ADF80C3040F201224FF49C
:10B22000A063ADF81020ADF814302422294B8DF81E
:10B2300016200693012204238DF81C208DF81F3060
:10B240008DF83030244D089540F2075340F22462C7
:10B25000ADF82420ADF82830ADF8383003250823A8
:10B260004FF411628DF82B508DF82C30ADF82E2054
:10B2700020460A25741C402307228DF834508DF88F
:10B280003C308DF83F2044F2020301A966F07F06AE
:10B2900064F07F04052542228DF806708DF80E704B
:10B2A0008DF826708DF83A808DF82A608DF8405020
:10B2B0008DF84140ADF8423015F016F8422012B03A
:10B2C000BDE8F081002012B0BDE8F0814220704757
:10B2D000006E0020200105242402060570B50368D5
:10B2E000184A5B6882B093428DF8071021D1054659
:10B2F000007EFF2823D000F08FFC0DF1070601240B
:10B300003146224688B1287E00F04EFD241A02D133
:10B31000012002B070BD06440FF05CFB287E00F0F7
:10B320007BFC314622460028EDD1C4F1010002B079
:10B3300070BD01220DF10701984702B070BD0020D9
:10B3400002B070BD59B10200002A00F093802DE9CF
:10B35000F041494991F81C7191F81D6191F81E81E5
:10B3600092B01D46B81C08F101031446B21C81F8C6
:10B370001C0181F81D2181F81E3101A84222002103
:10B3800014F0DAFF412D71D97B1CDBB28DF81E3031
:10B390008DF827308DF8313040F608320223ADF8B1
:10B3A00004208DF807308DF812308DF833308DF889
:10B3B0003B3040F2022240F20943ADF80820ADF8DC
:10B3C0000C3040F201224FF4A063ADF81020ADF82C
:10B3D00014302422294B8DF81620069301220423D1
:10B3E0008DF81C208DF81F308DF83030244D0895D5
:10B3F00040F2075340F22462ADF82420ADF8283023
:10B40000ADF83830032508234FF411628DF82B5026
:10B410008DF82C30ADF82E2020460A25741C4023D0
:10B4200007228DF834508DF83C308DF83F2044F2DF
:10B43000020301A966F07F0664F07F04052542221D
:10B440008DF806708DF80E708DF826708DF83A80A4
:10B450008DF82A608DF840508DF84140ADF84230AB
:10B4600014F042FF422012B0BDE8F081002012B07B
:10B47000BDE8F08142207047006E002020010524C5
:10B4800024020605037EFF2B02D1074B1A7802B176
:10B490007047064902764161012200F1100104481B
:10B4A0001A7000F0DBB800BFFC6D002048360400C5
:10B4B000006E0020007EFF280ED000B583B000F0A3
:10B4C000ABFB10B103B05DF804FB01900FF082FA02
:10B4D000019803B05DF804FB0020704701B900B18A
:10B4E000704700B583B0694600F0ACFB009BB3F534
:10B4F000966F02D003B05DF804FB00F00BFBF9E798
:10B5000030B4084B084AFF2002F108054FF47A7462
:10B510000021303218761D609C601A6130BC596081
:10B5200059617047E06D0020583604000378002B05
:10B5300000F09280F0B50546002004462E4603E058
:10B5400001342B5D2E19C3B103F14002D2B2012A9E
:10B55000F6D9F42BF4D81A0610D40122A3F55846D4
:10B56000B6F5006FECD31444202806D021F8103033
:10B570002B5D01302E19002BE6D1F0BD03F0E00267
:10B58000C02A52D003F0F002E02A61D003F0F802A2
:10B59000F02AD5D103F007030427727802F0C00C1B
:10B5A000BCF1800FCCD196F802C00CF0C00E02F0B6
:10B5B0003F02BEF1800F42EA8313C1D10CF03F0C71
:10B5C000032F4CEA83132AD0F27802F0C006802EB3
:10B5D000B6D102F03F0242EA8313A3F58032B2F5FE
:10B5E000801F38BF0427ABD2A3F55842B2F5006FD5
:10B5F000A6D3B3F5803F3C44B6D31E28BDDCA3F5EB
:10B60000803342009E0A0A44C3F30903A6F520567C
:10B61000A3F5105321F810605380023091E7A3F591
:10B620000062B2F5784FDFD38AE7727802F0C00685
:10B63000802E03F01F0383D102F03F0242EA8313FE
:10B64000A3F18002B2F5F06FBFF47AAF022285E772
:10B6500003F00F030327A0E71846704770B50446B0
:10B660000E68B4F81821B4F81A31656936689B1A67
:10B6700008469BB294F81C112A44B04758B1B4F85C
:10B680001831626903449BB2A4F81831538094F8CE
:10B690001C311371012070BD2DE9F043264DDFF8F8
:10B6A000A890AC4604468846BCE80F0089B003AFBA
:10B6B0000FC703AE0FCE05F1140E25460FC59EE849
:10B6C0000700DCF800303B806B4636682E8003C3F1
:10B6D0006B4603CB012504F118034FF480766361B8
:10B6E000A061E16184F8202004F59870C4F81891F5
:10B6F0002022A4F81C61002184F81E5114F01CFEC5
:10B700000E4E0F48A571042240F2EF2340F2094784
:10B710000021C4E94A0184F85021A3804FF4E131AB
:10B72000C4E948760748FFF7ADFE404600F0E0F96F
:10B73000284609B0BDE8F083A83604008C36040022
:10B7400060350400E06D0020090000012DE9F0479C
:10B75000D0F82C0188B00E4630B10231FFF7E6FE7A
:10B76000C0B208B0BDE8F087684600F0D5F986465B
:10B77000F8B1431E06F10409DBB2114DE84609EBAE
:10B78000830904AC95E80F0018F8017B84E80F00EA
:10B7900007F00F0C0DF1200AD4440AEB17171CF820
:10B7A00010CC17F8103CA6F804C073800436B145DD
:10B7B000E8D14FEA4E00C0B208B0BDE8F08700BF44
:10B7C0009436040000487047006E0020014B586911
:10B7D000704700BF006E002010B5B0B103281CD028
:10B7E000154C94F85031834223D9483004F5AA719E
:10B7F00054F82000FFF79AFEC3B201335B0043F414
:10B8000040730E48A4F8523110BD0B4CD4F82031CF
:10B81000A4F854314FF44173F3E70849A1F5A97432
:10B820002046FFF793FF431C5B0043F440739BB239
:10B83000E7E7002010BD00BF006E0020526F00201F
:10B84000024B53F8200000B1C0687047946F00208D
:10B8500030B4094CBDF8085054F8204044B1246974
:10B8600034B10846A44611461A462B4630BC604700
:10B87000002030BC704700BF946F002030B4084CEB
:10B88000BDF8085054F8204044B1646934B108460A
:10B89000A44611461A462B4630BC604730BC704760
:10B8A000946F0020024B186808B190F86000704750
:10B8B0009C6F00202DE9F843234C2568002D40D0D3
:10B8C0001E462C2303FB00530446D3F820908846E1
:10B8D0001746B9F1000F30D0484615F070FC082823
:10B8E000024628BF08222C2000FB0454D4E9095446
:10B8F000DFF85CC0154B002D08BF65464946404641
:10B90000002C08BF1C4614F0EFFC284615F057FC2D
:10B9100010280246294628BF1022384614F0E4FCBD
:10B92000204615F04CFC042802462146304628BF2C
:10B930000422BDE8F84314F0D7BCDFF818900822C1
:10B94000D1E7BDE8F88300BF9C6F0020E436040017
:10B95000D4360400C836040070B5104E3368CBB13D
:10B960002C2404FB0034054662691AB19047336801
:10B9700084F832002C2202FB053393F832400CB1DC
:10B98000204670BD284623463A22022101F074F871
:10B99000204670BD1C46204670BD00BF9C6F002035
:10B9A000074B1B6853B110B42C2404FB0030C46A4D
:10B9B000038E0C605DF8044B13807047704700BF26
:10B9C0009C6F002008B520220023052101F054F8C7
:10B9D0004FF0FF3008BD00BF30B4084C256855B1AA
:10B9E0000446084611461A462C2303FB0454E36917
:10B9F0000BB130BC1847012030BC70479C6F002051
:10BA000030B4094C029A25684DB1044608461946DF
:10BA10002C2303FB0454A3680BB130BC18474FF030
:10BA2000FF3030BC704700BF9C6F002030B4094C21
:10BA3000029A25684DB10446084619462C2303FB9B
:10BA40000454E3680BB130BC18474FF0FF3030BCF2
:10BA5000704700BF9C6F0020044B1B682BB12C2249
:10BA600002FB0030036903B1184770479C6F002048
:10BA7000054B1B682BB12C2202FB0030836903B1FC
:10BA800018470120704700BF9C6F002004F062BF80
:10BA900000B5134B402283B083F82723002002F027
:10BAA0009BFF4FF080430024D3F838548DF80040BA
:10BAB00068460EF06DFD0B4B019301A80EF0B8FD2A
:10BAC0000EF0C2FDEB0707D400214FF0FF3003F06A
:10BAD00005F8FFF7E7FAF7E7204604F03BFFF3E746
:10BAE00000E100E08DBA0200002004F07FBB00BF3F
:10BAF00000B5002383B00322CDE9002303490448A5
:10BB0000C8220DF005FA03B05DF804FBE836040026
:10BB100091BA02000FF0FAB84FF08052536E1BBA80
:10BB20000360136E1BBA43600820704700487047DB
:10BB3000F036040070B51E4D2B6883B1012913D176
:10BB40001478C4F34114012C0BD0022C07D1547883
:10BB5000012C0BD0022C07D19388072B20D000207A
:10BB600070BD517822290BD0012070BD9C69002C3A
:10BB7000F5D0237811462246BDE8704003F042BE5E
:10BB80005188003918BF01215975114603F020FE74
:10BB90002A68D369002BE7D0507D9847204670BDB6
:10BBA000044C114623892246BDE8704003F02ABEAA
:10BBB000A06F00200460002070B5044602F0F4FE7F
:10BBC00008B9002070BD02F0F7FE05460028F8D144
:10BBD000E378002BF5D004F11006304602F0F0FCBB
:10BBE0003F28EED9E178284603F032FD0028E8D05E
:10BBF000304602F0E5FC3F2808D9E178284604F5F4
:10BC000036724023BDE8704003F042BDE17828461B
:10BC100003F02EFDD5E700BF10B5044602F0C4FEC8
:10BC200008B9002010BD02F0C7FE0028F9D1044871
:10BC30004FF4567303FB0400007900F0010010BDBF
:10BC4000A86F0020054B4FF4567202FB0033986832
:10BC500008609A899B7B8B718A807047A86F00204F
:10BC600008B5044B4FF4567202FB0030103002F05E
:10BC70008DFC08BDA86F00202DE9F8434FF45674E1
:10BC800004FB00F4204F4FF6FE704FF6FF7304F1F3
:10BC90001005824288BF1A463D4492B2284602F0FF
:10BCA000A1FC064602F080FE10B93046BDE8F883DC
:10BCB00002F082FE81460028F7D107EB040898F8CD
:10BCC0000330002BF1D0284602F07AFC3F28ECD953
:10BCD00098F80310484603F0BBFC0028E5D028463E
:10BCE00002F06EFC3F2809D904F5367298F803106B
:10BCF0003A444846402303F0CBFCD6E798F80310BB
:10BD0000484603F0B5FCD0E7A86F0020034B4FF482
:10BD1000567202FB0030103002F0D2BCA86F002037
:10BD20002DE9F041044602F03FFE10B90020BDE8C5
:10BD3000F08102F041FE06460028F7D14FF456711B
:10BD4000DFF8608001FB04F404F124054544284633
:10BD500002F01CFC0028E9D008EB04073046B97853
:10BD600003F076FC0028E1D004F5467444442846EC
:10BD70002146402202F036FC054660B1B9782246E1
:10BD800030462B4603F084FC40B9054B1B68DB07AB
:10BD9000CCD500BECBE7B97803F06AFC2846C6E7ED
:10BDA000F0ED00E0A86F002038B5104B4FF456744A
:10BDB00004FB003405464FF6FF734FF6FE708242D7
:10BDC00088BF1A46243492B2204602F0B3FC0346E0
:10BDD00020461C4602F0DAFB3F2801D8204638BD39
:10BDE0002846FFF79DFF204638BD00BFA86F002002
:10BDF00008B5044B4FF4567202FB0030243002F0B9
:10BE0000DFFB08BDA86F0020F0B5214C214F83B0A7
:10BE10004FF456720021204614F08EFAFF230026BC
:10BE20004FF4E13208256371012304F13801A26067
:10BE3000A5734FF480721D46009604F11000A68190
:10BE40003E7002F06BFB2B4604F59C7100954FF49D
:10BE5000807204F1240002F061FB04F50E712846A3
:10BE60000CF0F0FA034604F5227128461D460CF04A
:10BE7000E9FA05B130B9084B1B68DB0700D500BEF5
:10BE800003B0F0BDC4E90765C4E90C0603B0F0BD1A
:10BE9000A86F0020A46F0020F0ED00E038B5094C39
:10BEA000206A256B20B10CF095FE0023C4E907330E
:10BEB0002DB128460CF08EFE0023C4E90C3301207E
:10BEC00038BD00BFA86F002010B50F4C0F48237875
:10BED000002202600271DA0707D59B070BD5BDE887
:10BEE00010400B48012102F0E7BC103002F0C4FC06
:10BEF00023789B07F3D4064802F0BEFCBDE810404F
:10BF00000348012102F0D8BCA46F0020A86F0020D4
:10BF1000CC6F0020F0B54B79022B83B002D18B7926
:10BF2000022B03D00025284603B0F0BD264FBB7876
:10BF30002BB1264B1B68DB07F4D500BEF2E78B78EC
:10BF40003B700C780C440646617824294FF00905B3
:10BF50000BD1082A02D80FE0AA420DD323781C4443
:10BF60002B44617824299DB2F6D005290AD00429F2
:10BF700002D163790A2B13D01348FFF71DFE284620
:10BF800003B0F0BD2146304603F03EFB0028D0D080
:10BF9000A3787B7023781C442B4461789DB2E6E73C
:10BFA0000B4A277801920223013200923046E119B0
:10BFB0001A4603F099FA0028BBD005F10E0317FAD0
:10BFC00083F39DB2D8E700BFA86F0020F0ED00E03A
:10BFD000AA6F002038B5137803F06003202B0CD132
:10BFE000274C938825789D4207D15378203B032B1B
:10BFF00003D8DFE803F00A172004002038BD012928
:10C0000030D0032933D0012038BD01290CD00329B9
:10C01000F9D11C4B002BF6D01B490020AFF3008058
:10C02000012038BD0129EED111460723164A03F03D
:10C03000E9FB012038BD012914D00329E3D155883B
:10C04000257105F00104114884F0010102F034FC6F
:10C050000F4B002BD7D0C5F3400221460020FFF73D
:10C060003DFAD0E7114603F0B3FB012038BD094B80
:10C07000002BC8D051880020AFF30080012038BDCC
:10C08000A86F002000000000B06F0020CC6F0020DF
:10C09000DDB40200000000002DE9F0474A4DEA78C7
:10C0A0008A420C4607461E4654D19AB205F53671AF
:10C0B00005F1100002F03EFB444BD3B16B79FF2B2E
:10C0C00017D0B6B105F2D72808EB060AA8F2C7299F
:10C0D00002E0D0450DD06B7918F8012F9A42F8D1C3
:10C0E000484602F063FA0028F3D16979AFF3008083
:10C0F000EFE7374B23B1374802F058FA00285BD0FE
:10C100003148FFF759FDAB78A34203D00124204604
:10C11000BDE8F087304B13B10020AFF3008002F090
:10C1200043FC20BB2D4802F031FA0028EED1002E4E
:10C13000ECD016F03F06E9D1A978384603F088FA2A
:10C1400004460028E2D0A97838463346324603F048
:10C150009FFADCE7AB788B42DCD0214B1C6814F0F3
:10C160000104D4D000BE00242046BDE8F08702F0D0
:10C1700023FC04460028D5D1184802F007FA00280D
:10C18000D0D0A978204603F063FA0028CAD0154918
:10C190004022A1F53D7002F025FA034678B1114A1C
:10C1A000A978204603F074FA0028AFD10C4B1B6825
:10C1B000DB07B7D500BEB5E7AFF30080A0E7A978ED
:10C1C00003F056FAAEE700BFA86F002000000000A1
:10C1D00000000000B86F002000000000CC6F0020BD
:10C1E000F0ED00E0C0720020704700BF01207047F2
:10C1F000704700BF704700BF02484FF4CC72002167
:10C2000014F09AB8007300200120704702484FF4E0
:10C21000CC72002114F090B8007300202DE9F04793
:10C220004B79032B82B014D10B79C3EBC3051235C4
:10C23000ADB295420C4607D8304F7A7806466AB1BF
:10C2400097F8CD20002A50D02D4B1B68DA0700D577
:10C2500000BE0025284602B0BDE8F0879046924611
:10C260004FF0010E4FF0020C2278A11848782128D7
:10C27000EAD14FF0CC0909FB0A7907EB0E00C9F8A7
:10C28000081014F802E0019007EB0C0200927144D0
:10C290001A463046032303F027F90028D4D0A379A7
:10C2A000012B04BFE37989F80330CC2303FB0AFA9E
:10C2B00007EB0A0301229A71A27807F80A209A680C
:10C2C0009978B2F807209A800029C3D008F18C022F
:10C2D0003A443046402303F0DBF90028BAD1084B3A
:10C2E0001B68DB07B6D500BEB4E74FF0CD0E4FF0AC
:10C2F000CE0C4FF0CC084FF0010AB5E700730020D8
:10C30000F0ED00E0137803F01F0CBCF1010F14D125
:10C310002DE9F0410C468249978815460A78FFB20C
:10C32000BA4282B006460AD091F8CC20BA4200F058
:10C33000CB80002002B0BDE8F081002070470027CC
:10C34000BC4606220C204FF0070E13F0600306D106
:10C35000012C00F09F80012002B0BDE8F081202B6D
:10C36000E7D16B78013B0A2BE3D80FF2080858F8A5
:10C3700023F000BF47C402003DC4020029C40200EC
:10C3800033C3020033C3020033C3020033C30200CD
:10C3900033C30200E9C30200C1C30200A1C302000B
:10C3A000012C1BD0032CD6D16B88CC2202FB0717A3
:10C3B000DBB260461946BB71FFF716FF0120B9E7F3
:10C3C000012CC8D16B88CC2202FB07171B0A6046E0
:10C3D0001946FB71FFF70AFF0028AAD0294630460C
:10C3E00003F0F6F90120A5E7012C00F08280032C70
:10C3F000B1D16C88ED88402D01EB0003284628BFA1
:10C40000402014F0FF014FEA142207D0012D05D976
:10C410001C788C4202D1013880B201330090604612
:10C42000FFF72CFA012085E7012C94D10A44294614
:10C430003046234603F0E6F920467BE7012C8AD1FB
:10C4400001EB0E02F3E7012C85D1B5F806E06B880D
:10C450000F187046402828BF402013F0FF014FEA14
:10C4600013223B4657D0BEF1010F56D9013803F8CD
:10C47000011B80B200906046FFF7EAF923189BB2D7
:10C48000002B41D1274A1268D2077FF552AF00BE78
:10C4900018464FE76B78062B7FF44BAF6B881B0A6F
:10C4A000212B17D0222B7FF444AF6046FFF7C8F949
:10C4B0001B49CC2303FB07170246BB88294630469D
:10C4C00003F0A0F9204635E7D222D8204FF0D30E52
:10C4D00067463AE7CC2303FB07139A68002A3FF428
:10C4E00028AF13782946304602B0BDE8F04103F08A
:10C4F00089B9EB88402B3FF61CAF0A182946304615
:10C5000003F080F9204615E73A462946304603F005
:10C5100079F901200EE70C46ACE70024AAE700BF3A
:10C5200000730020F0ED00E070B52C4EB4788C4222
:10C5300082B0054613D0707888422CD096F8CE0091
:10C54000884243D096F8CD00884244D0244B1B68E3
:10C55000DA0702D4002002B070BD00BEFAE774789A
:10C5600000208C4218D002BB9BB206F18C040093D1
:10C57000114623460222FFF781F9B1782246284668
:10C58000402303F085F80028E5D1154B1B68DB0735
:10C59000E0D500BEDFE700207AB99AB206F14C017F
:10C5A000FFF726FE012002B070BD06F18C049BB29D
:10C5B00022460221FFF71EFEDFE79BB206F14C0286
:10C5C0000121FFF717FE012002B070BD96F8CD40A3
:10C5D0000120CC36C5E7CC360120DDE70073002012
:10C5E000F0ED00E070B500F124050446284601F0A6
:10C5F000CDFF08B9002070BD6178002003F028F855
:10C600000028F7D004F5067628463146402201F08E
:10C61000E9FF054660B1034661783246002003F029
:10C6200037F840B9054B1B68DB07E3D500BE70BD8A
:10C63000617803F01DF8284670BD00BFF0ED00E002
:10C6400070B51A4C82B000210D464FF41672204688
:10C6500013F072FE04F138010123802204F110006E
:10C66000009501F05BFF04F1B801012380220095E1
:10C6700004F1240001F052FF04F59C7101200BF03D
:10C68000E1FE04F5C471064601200BF0DBFE30B973
:10C69000074B1B68DB0700D500BE02B070BDC4E9C4
:10C6A0000756C4E90C0502B070BD00BF9099002088
:10C6B000F0ED00E038B5094C206A256B20B10CF094
:10C6C00089FA0023C4E907332DB128460CF082FA19
:10C6D0000023C4E90C33012038BD00BF909900202D
:10C6E00010B5084C002304F11000C4E90033C4E97C
:10C6F000023302F0C1F804F12400BDE8104002F05A
:10C70000BBB800BF909900202DE9F0434B79012B75
:10C7100083B002D18B79012B04D00025284603B0C9
:10C72000BDE8F083CB79002BF7D10B78CC18064607
:10C730006578242D99B20BD1914202D9EDE78A4256
:10C74000EBD323781C440B446578242D99B2F6D0A2
:10C75000042DE2D16379012BDFD1A379032BDCD146
:10C76000E579002DD9D1DFF8CC8098F8010098F850
:10C77000023050EA030905D02B4B1B68DB07CCD5F0
:10C7800000BECBE7A37888F8003027782079CB1952
:10C790009DB2274430B922E03B7881451D44ADB2BB
:10C7A0001F441CD2AA421AD37B78052BF4D13946F8
:10C7B0003046019202F028FF019A68B3BB782079D5
:10C7C000D90914BF88F8013088F80230397809F1A6
:10C7D00001030D445FFA83F9ADB20F44DCE713485F
:10C7E00001F0EEFE3F2899D998F80210002002F0DF
:10C7F0002FFF002892D00D4801F0E2FE3F2898F864
:10C80000021005D90A4A4023002002F041FF85E7C3
:10C81000002002F02DFF81E7034B1B68DA077FF54C
:10C820007CAF00BE054679E7F0ED00E0A09900205E
:10C83000689B00209099002000207047F8B52D4D8E
:10C84000AA788A421E4619D19AB205F5EC7105F113
:10C85000100001F06FFF284B13B10020AFF30080F0
:10C86000264801F0ADFE3F2805D9A978002002F046
:10C87000EFFE044668BB01242046F8BD6B788B426E
:10C8800008D01F4B1C6814F00104F5D000BE002432
:10C890002046F8BD07462846FFF7A4FE0028EAD147
:10C8A00005F1240001F072FE0028E4D1002EE2D050
:10C8B00016F03F06DFD16978384602F0C9FE04461B
:10C8C0000028D8D0697838463346324602F0E0FE78
:10C8D000D2E70A4801F074FE3F28A97805D9094A31
:10C8E0004023002002F0D4FEC6E7002002F0C0FE84
:10C8F000C2E700BF9099002000000000A09900202E
:10C90000F0ED00E0689B002070B5324CE28AA3682D
:10C9100052BA92B286B0054612B1B3FBF2F292B2AD
:10C92000A06BD4F81110B0FBF2F61B1AB3F5007F20
:10C9300028BF4FF4007309BA009302FB160231447A
:10C94000254B607BFFF75CF8011E1EDB0AD08BB223
:10C95000214A94F82E10284602F09AFE002833D07F
:10C9600006B070BD94F82E300391072203A8CDE9DC
:10C9700004118DF80C508DF80D208DF810308DF8C5
:10C98000111002F095FC06B070BDA268A36B43F6CF
:10C9900002200021D31AA08784F83E100120022132
:10C9A000A36284F82C0084F83010002AD8D0002B21
:10C9B000D6D0237BDB0914BF94F82E1094F82F10E7
:10C9C000284602F0A5FECBE7044B1B68DB07C7D562
:10C9D00000BEC5E79876002098740020F0ED00E0D6
:10C9E00038B5214B214C05461BB1607BFFF740F861
:10C9F000B0B1A06BA36894F82F101D4A1B1AB3F5B1
:10CA0000007F28BF4FF4007328469BB202F040FE1F
:10CA100000B138BD174B1B68DB07FAD500BE38BD27
:10CA2000A26BA16884F83E008B1A42F207720120C3
:10CA3000A2870222A36284F82C0084F83020002907
:10CA4000E7D0002BE5D0237BDB0906D094F82E102D
:10CA50002846BDE8384002F05BBE94F82F10284607
:10CA6000BDE8384002F054BE71BA0200987600204A
:10CA700098740020F0ED00E0044880F83C1080F845
:10CA80003D2080F83E300120704700BF987600209E
:10CA900002484022002113F04FBC00BF98760020CE
:10CAA00002484022002113F047BC00BF98760020C6
:10CAB0004B79082B01D0002070478B79062BFAD1D7
:10CAC000CB79502BF7D1162A06D81C4B1B68D907F7
:10CAD000F1D500BE0020704770B5194D8B7885F8F0
